{
    "contractName": "UnitTestingContract",
    "abi": [
        {
            "inputs": [
                {
                    "internalType": "address",
                    "name": "_owner",
                    "type": "address"
                }
            ],
            "stateMutability": "nonpayable",
            "type": "constructor"
        },
        {
            "inputs": [],
            "name": "aBool",
            "outputs": [
                {
                    "internalType": "bool",
                    "name": "",
                    "type": "bool"
                }
            ],
            "stateMutability": "view",
            "type": "function"
        },
        {
            "inputs": [
                {
                    "internalType": "uint256",
                    "name": "",
                    "type": "uint256"
                }
            ],
            "name": "aBoolArray",
            "outputs": [
                {
                    "internalType": "bool",
                    "name": "",
                    "type": "bool"
                }
            ],
            "stateMutability": "view",
            "type": "function"
        },
        {
            "inputs": [
                {
                    "internalType": "uint256",
                    "name": "",
                    "type": "uint256"
                }
            ],
            "name": "aBoolArraySz",
            "outputs": [
                {
                    "internalType": "bool",
                    "name": "",
                    "type": "bool"
                }
            ],
            "stateMutability": "view",
            "type": "function"
        },
        {
            "inputs": [],
            "name": "addr",
            "outputs": [
                {
                    "internalType": "address",
                    "name": "",
                    "type": "address"
                }
            ],
            "stateMutability": "view",
            "type": "function"
        },
        {
            "inputs": [
                {
                    "internalType": "uint256",
                    "name": "",
                    "type": "uint256"
                }
            ],
            "name": "addrArray",
            "outputs": [
                {
                    "internalType": "address",
                    "name": "",
                    "type": "address"
                }
            ],
            "stateMutability": "view",
            "type": "function"
        },
        {
            "inputs": [
                {
                    "internalType": "uint256",
                    "name": "",
                    "type": "uint256"
                }
            ],
            "name": "addrArraySz",
            "outputs": [
                {
                    "internalType": "address",
                    "name": "",
                    "type": "address"
                }
            ],
            "stateMutability": "view",
            "type": "function"
        },
        {
            "inputs": [],
            "name": "bigInt",
            "outputs": [
                {
                    "internalType": "int256",
                    "name": "",
                    "type": "int256"
                }
            ],
            "stateMutability": "view",
            "type": "function"
        },
        {
            "inputs": [
                {
                    "internalType": "uint256",
                    "name": "",
                    "type": "uint256"
                }
            ],
            "name": "bigIntArray",
            "outputs": [
                {
                    "internalType": "int256",
                    "name": "",
                    "type": "int256"
                }
            ],
            "stateMutability": "view",
            "type": "function"
        },
        {
            "inputs": [
                {
                    "internalType": "uint256",
                    "name": "",
                    "type": "uint256"
                }
            ],
            "name": "bigIntArraySz",
            "outputs": [
                {
                    "internalType": "int256",
                    "name": "",
                    "type": "int256"
                }
            ],
            "stateMutability": "view",
            "type": "function"
        },
        {
            "inputs": [],
            "name": "getBalance",
            "outputs": [
                {
                    "internalType": "uint256",
                    "name": "",
                    "type": "uint256"
                }
            ],
            "stateMutability": "view",
            "type": "function"
        },
        {
            "inputs": [],
            "name": "owner",
            "outputs": [
                {
                    "internalType": "address payable",
                    "name": "",
                    "type": "address"
                }
            ],
            "stateMutability": "view",
            "type": "function"
        },
        {
            "inputs": [],
            "name": "revertAllStorage",
            "outputs": [],
            "stateMutability": "nonpayable",
            "type": "function"
        },
        {
            "inputs": [
                {
                    "internalType": "bool",
                    "name": "_a",
                    "type": "bool"
                }
            ],
            "name": "setABool",
            "outputs": [],
            "stateMutability": "nonpayable",
            "type": "function"
        },
        {
            "inputs": [
                {
                    "internalType": "bool[]",
                    "name": "_a",
                    "type": "bool[]"
                }
            ],
            "name": "setABoolArray",
            "outputs": [],
            "stateMutability": "nonpayable",
            "type": "function"
        },
        {
            "inputs": [
                {
                    "internalType": "bool[2]",
                    "name": "_a",
                    "type": "bool[2]"
                }
            ],
            "name": "setABoolArraySz",
            "outputs": [],
            "stateMutability": "nonpayable",
            "type": "function"
        },
        {
            "inputs": [
                {
                    "internalType": "address",
                    "name": "_a",
                    "type": "address"
                }
            ],
            "name": "setAddr",
            "outputs": [],
            "stateMutability": "nonpayable",
            "type": "function"
        },
        {
            "inputs": [
                {
                    "internalType": "address[]",
                    "name": "_a",
                    "type": "address[]"
                }
            ],
            "name": "setAddrArray",
            "outputs": [],
            "stateMutability": "nonpayable",
            "type": "function"
        },
        {
            "inputs": [
                {
                    "internalType": "address[2]",
                    "name": "_a",
                    "type": "address[2]"
                }
            ],
            "name": "setAddrArraySz",
            "outputs": [],
            "stateMutability": "nonpayable",
            "type": "function"
        },
        {
            "inputs": [
                {
                    "internalType": "int256",
                    "name": "_a",
                    "type": "int256"
                }
            ],
            "name": "setBigInt",
            "outputs": [],
            "stateMutability": "nonpayable",
            "type": "function"
        },
        {
            "inputs": [
                {
                    "internalType": "int256[]",
                    "name": "_a",
                    "type": "int256[]"
                }
            ],
            "name": "setBigIntArray",
            "outputs": [],
            "stateMutability": "nonpayable",
            "type": "function"
        },
        {
            "inputs": [
                {
                    "internalType": "int256[2]",
                    "name": "_a",
                    "type": "int256[2]"
                }
            ],
            "name": "setBigIntArraySz",
            "outputs": [],
            "stateMutability": "nonpayable",
            "type": "function"
        },
        {
            "inputs": [
                {
                    "internalType": "bytes16",
                    "name": "_a",
                    "type": "bytes16"
                }
            ],
            "name": "setSizedBytes",
            "outputs": [],
            "stateMutability": "nonpayable",
            "type": "function"
        },
        {
            "inputs": [
                {
                    "internalType": "bytes16[]",
                    "name": "_a",
                    "type": "bytes16[]"
                }
            ],
            "name": "setSizedBytesArray",
            "outputs": [],
            "stateMutability": "nonpayable",
            "type": "function"
        },
        {
            "inputs": [
                {
                    "internalType": "bytes16[2]",
                    "name": "_a",
                    "type": "bytes16[2]"
                }
            ],
            "name": "setSizedBytesArraySz",
            "outputs": [],
            "stateMutability": "nonpayable",
            "type": "function"
        },
        {
            "inputs": [
                {
                    "internalType": "bytes",
                    "name": "_a",
                    "type": "bytes"
                }
            ],
            "name": "setSomeBytes",
            "outputs": [],
            "stateMutability": "nonpayable",
            "type": "function"
        },
        {
            "inputs": [
                {
                    "internalType": "bytes[]",
                    "name": "_a",
                    "type": "bytes[]"
                }
            ],
            "name": "setSomeBytesArray",
            "outputs": [],
            "stateMutability": "nonpayable",
            "type": "function"
        },
        {
            "inputs": [
                {
                    "internalType": "bytes[2]",
                    "name": "_a",
                    "type": "bytes[2]"
                }
            ],
            "name": "setSomeBytesArraySz",
            "outputs": [],
            "stateMutability": "nonpayable",
            "type": "function"
        },
        {
            "inputs": [
                {
                    "internalType": "string",
                    "name": "_a",
                    "type": "string"
                }
            ],
            "name": "setSomeString",
            "outputs": [],
            "stateMutability": "nonpayable",
            "type": "function"
        },
        {
            "inputs": [
                {
                    "internalType": "string[]",
                    "name": "_a",
                    "type": "string[]"
                }
            ],
            "name": "setSomeStringArray",
            "outputs": [],
            "stateMutability": "nonpayable",
            "type": "function"
        },
        {
            "inputs": [
                {
                    "internalType": "string[2]",
                    "name": "_a",
                    "type": "string[2]"
                }
            ],
            "name": "setSomeStringArraySz",
            "outputs": [],
            "stateMutability": "nonpayable",
            "type": "function"
        },
        {
            "inputs": [
                {
                    "internalType": "int8",
                    "name": "_a",
                    "type": "int8"
                }
            ],
            "name": "setTinyInt",
            "outputs": [],
            "stateMutability": "nonpayable",
            "type": "function"
        },
        {
            "inputs": [
                {
                    "internalType": "int8[]",
                    "name": "_a",
                    "type": "int8[]"
                }
            ],
            "name": "setTinyIntArray",
            "outputs": [],
            "stateMutability": "nonpayable",
            "type": "function"
        },
        {
            "inputs": [
                {
                    "internalType": "int8[2]",
                    "name": "_a",
                    "type": "int8[2]"
                }
            ],
            "name": "setTinyIntArraySz",
            "outputs": [],
            "stateMutability": "nonpayable",
            "type": "function"
        },
        {
            "inputs": [
                {
                    "internalType": "uint8",
                    "name": "_a",
                    "type": "uint8"
                }
            ],
            "name": "setTinyUint",
            "outputs": [],
            "stateMutability": "nonpayable",
            "type": "function"
        },
        {
            "inputs": [
                {
                    "internalType": "uint8[]",
                    "name": "_a",
                    "type": "uint8[]"
                }
            ],
            "name": "setTinyUintArray",
            "outputs": [],
            "stateMutability": "nonpayable",
            "type": "function"
        },
        {
            "inputs": [
                {
                    "internalType": "uint8[2]",
                    "name": "_a",
                    "type": "uint8[2]"
                }
            ],
            "name": "setTinyUintArraySz",
            "outputs": [],
            "stateMutability": "nonpayable",
            "type": "function"
        },
        {
            "inputs": [],
            "name": "sizedBytes",
            "outputs": [
                {
                    "internalType": "bytes32",
                    "name": "",
                    "type": "bytes32"
                }
            ],
            "stateMutability": "view",
            "type": "function"
        },
        {
            "inputs": [
                {
                    "internalType": "uint256",
                    "name": "",
                    "type": "uint256"
                }
            ],
            "name": "sizedBytesArray",
            "outputs": [
                {
                    "internalType": "bytes32",
                    "name": "",
                    "type": "bytes32"
                }
            ],
            "stateMutability": "view",
            "type": "function"
        },
        {
            "inputs": [
                {
                    "internalType": "uint256",
                    "name": "",
                    "type": "uint256"
                }
            ],
            "name": "sizedBytesArraySz",
            "outputs": [
                {
                    "internalType": "bytes32",
                    "name": "",
                    "type": "bytes32"
                }
            ],
            "stateMutability": "view",
            "type": "function"
        },
        {
            "inputs": [],
            "name": "someBytes",
            "outputs": [
                {
                    "internalType": "bytes",
                    "name": "",
                    "type": "bytes"
                }
            ],
            "stateMutability": "view",
            "type": "function"
        },
        {
            "inputs": [
                {
                    "internalType": "uint256",
                    "name": "",
                    "type": "uint256"
                }
            ],
            "name": "someBytesArray",
            "outputs": [
                {
                    "internalType": "bytes",
                    "name": "",
                    "type": "bytes"
                }
            ],
            "stateMutability": "view",
            "type": "function"
        },
        {
            "inputs": [
                {
                    "internalType": "uint256",
                    "name": "",
                    "type": "uint256"
                }
            ],
            "name": "someBytesArraySz",
            "outputs": [
                {
                    "internalType": "bytes",
                    "name": "",
                    "type": "bytes"
                }
            ],
            "stateMutability": "view",
            "type": "function"
        },
        {
            "inputs": [],
            "name": "someString",
            "outputs": [
                {
                    "internalType": "string",
                    "name": "",
                    "type": "string"
                }
            ],
            "stateMutability": "view",
            "type": "function"
        },
        {
            "inputs": [
                {
                    "internalType": "uint256",
                    "name": "",
                    "type": "uint256"
                }
            ],
            "name": "someStringArray",
            "outputs": [
                {
                    "internalType": "string",
                    "name": "",
                    "type": "string"
                }
            ],
            "stateMutability": "view",
            "type": "function"
        },
        {
            "inputs": [
                {
                    "internalType": "uint256",
                    "name": "",
                    "type": "uint256"
                }
            ],
            "name": "someStringArraySz",
            "outputs": [
                {
                    "internalType": "string",
                    "name": "",
                    "type": "string"
                }
            ],
            "stateMutability": "view",
            "type": "function"
        },
        {
            "inputs": [],
            "name": "tinyInt",
            "outputs": [
                {
                    "internalType": "int8",
                    "name": "",
                    "type": "int8"
                }
            ],
            "stateMutability": "view",
            "type": "function"
        },
        {
            "inputs": [
                {
                    "internalType": "uint256",
                    "name": "",
                    "type": "uint256"
                }
            ],
            "name": "tinyIntArray",
            "outputs": [
                {
                    "internalType": "int8",
                    "name": "",
                    "type": "int8"
                }
            ],
            "stateMutability": "view",
            "type": "function"
        },
        {
            "inputs": [
                {
                    "internalType": "uint256",
                    "name": "",
                    "type": "uint256"
                }
            ],
            "name": "tinyIntArraySz",
            "outputs": [
                {
                    "internalType": "int8",
                    "name": "",
                    "type": "int8"
                }
            ],
            "stateMutability": "view",
            "type": "function"
        },
        {
            "inputs": [],
            "name": "tinyUint",
            "outputs": [
                {
                    "internalType": "uint8",
                    "name": "",
                    "type": "uint8"
                }
            ],
            "stateMutability": "view",
            "type": "function"
        },
        {
            "inputs": [
                {
                    "internalType": "uint256",
                    "name": "",
                    "type": "uint256"
                }
            ],
            "name": "tinyUintArray",
            "outputs": [
                {
                    "internalType": "uint8",
                    "name": "",
                    "type": "uint8"
                }
            ],
            "stateMutability": "view",
            "type": "function"
        },
        {
            "inputs": [
                {
                    "internalType": "uint256",
                    "name": "",
                    "type": "uint256"
                }
            ],
            "name": "tinyUintArraySz",
            "outputs": [
                {
                    "internalType": "uint8",
                    "name": "",
                    "type": "uint8"
                }
            ],
            "stateMutability": "view",
            "type": "function"
        },
        {
            "inputs": [],
            "name": "withdrawBalance",
            "outputs": [],
            "stateMutability": "nonpayable",
            "type": "function"
        },
        {
            "stateMutability": "payable",
            "type": "receive"
        }
    ],
    "bytecode": "608060405234801561001057600080fd5b50604051611bac380380611bac83398101604081905261002f91610054565b600080546001600160a01b0319166001600160a01b0392909216919091179055610084565b60006020828403121561006657600080fd5b81516001600160a01b038116811461007d57600080fd5b9392505050565b611b19806100936000396000f3fe6080604052600436106103035760003560e01c806380ec337311610190578063bed25df6116100dc578063d21917db11610095578063e7a96f6d1161006f578063e7a96f6d14610979578063e87ccd7b1461098e578063eabed090146109ae578063f9a920a6146109df57600080fd5b8063d21917db14610910578063df22e7f914610930578063dfd5c3a91461095057600080fd5b8063bed25df614610834578063bf1dc29114610854578063c2bf268714610874578063cb501cb414610889578063cbfe8119146108b3578063d1d80fdf146108d357600080fd5b80639c38f90011610149578063a834641511610123578063a8346415146107b4578063a88cb73b146107d4578063b86cce3b146107f4578063bd621a2b1461081457600080fd5b80639c38f9001461075f578063a49b951914610774578063a5495ef51461079457600080fd5b806380ec3373146106a557806387d8577f146106c55780638da5cb5b146106e55780639206fe6814610705578063961c659f14610725578063998721791461074557600080fd5b80634e56e1081161024f57806369a3c06a1161020857806374ca46e5116101e257806374ca46e514610625578063767800de1461064557806376ad4bb1146106655780637907411c1461068557600080fd5b806369a3c06a146105a55780636b177677146105d3578063717e2f5d146105f357600080fd5b80634e56e108146104fa578063599e4603146105105780635ecb4cc4146105305780635fb4cbd2146105505780635fd8c71014610570578063602d50891461058557600080fd5b806312065fe0116102bc578063350ca84311610296578063350ca8431461047057806339dd47a61461049a57806344dd656d146104ba578063450632f1146104da57600080fd5b806312065fe01461040557806315c5992d146104185780631a4ab4671461045057600080fd5b806303d242331461030f5780630aa514ae146103385780630c2eb905146103655780630c8885e4146103925780630e9e99d1146103c55780630f088666146103e557600080fd5b3661030a57005b600080fd5b34801561031b57600080fd5b50610325600c5481565b6040519081526020015b60405180910390f35b34801561034457600080fd5b506010546103529060000b81565b60405160009190910b815260200161032f565b34801561037157600080fd5b5061038561038036600461175e565b6109ff565b60405161032f91906117c4565b34801561039e57600080fd5b506103c36103ad3660046117de565b6017805460ff191660ff92909216919091179055565b005b3480156103d157600080fd5b506103256103e036600461175e565b610a9f565b3480156103f157600080fd5b506103c3610400366004611818565b610ac0565b34801561041157600080fd5b5047610325565b34801561042457600080fd5b5061043861043336600461175e565b610b0f565b6040516001600160a01b03909116815260200161032f565b34801561045c57600080fd5b506103c361046b366004611880565b610b39565b34801561047c57600080fd5b5060055461048a9060ff1681565b604051901515815260200161032f565b3480156104a657600080fd5b506103856104b536600461175e565b610c03565b3480156104c657600080fd5b506103256104d536600461175e565b610c2e565b3480156104e657600080fd5b506103856104f536600461175e565b610c45565b34801561050657600080fd5b5061032560135481565b34801561051c57600080fd5b506103c361052b366004611904565b610c55565b34801561053c57600080fd5b506103c361054b366004611818565b610c61565b34801561055c57600080fd5b5061035261056b36600461175e565b610caa565b34801561057c57600080fd5b506103c3610cdb565b34801561059157600080fd5b506103c36105a0366004611880565b610d84565b3480156105b157600080fd5b506103c36105c036600461193a565b6005805460ff1916911515919091179055565b3480156105df57600080fd5b506104386105ee36600461175e565b610e49565b3480156105ff57600080fd5b5061061361060e36600461175e565b610e69565b60405160ff909116815260200161032f565b34801561063157600080fd5b5061061361064036600461175e565b610e93565b34801561065157600080fd5b50600154610438906001600160a01b031681565b34801561067157600080fd5b506103c361068036600461195c565b610ec7565b34801561069157600080fd5b506103256106a036600461175e565b610f00565b3480156106b157600080fd5b506103c36106c0366004611880565b610f10565b3480156106d157600080fd5b506103c36106e0366004611880565b610fab565b3480156106f157600080fd5b50600054610438906001600160a01b031681565b34801561071157600080fd5b506103c361072036600461175e565b601355565b34801561073157600080fd5b506103c3610740366004611818565b61106e565b34801561075157600080fd5b506017546106139060ff1681565b34801561076b57600080fd5b506103856110d1565b34801561078057600080fd5b5061032561078f36600461175e565b6110de565b3480156107a057600080fd5b506103c36107af366004611880565b6110ee565b3480156107c057600080fd5b506103c36107cf366004611880565b611175565b3480156107e057600080fd5b506103526107ef36600461175e565b611213565b34801561080057600080fd5b5061048a61080f36600461175e565b61123d565b34801561082057600080fd5b5061038561082f36600461175e565b61124d565b34801561084057600080fd5b506103c361084f366004611818565b61125d565b34801561086057600080fd5b5061048a61086f36600461175e565b611297565b34801561088057600080fd5b506103c36112a7565b34801561089557600080fd5b506103c36108a4366004611999565b6001600160801b031916600c55565b3480156108bf57600080fd5b506103c36108ce366004611818565b6113ae565b3480156108df57600080fd5b506103c36108ee3660046119c3565b600180546001600160a01b0319166001600160a01b0392909216919091179055565b34801561091c57600080fd5b506103c361092b366004611904565b6113fd565b34801561093c57600080fd5b506103c361094b366004611880565b611409565b34801561095c57600080fd5b506103c361096b366004611818565b803560145560200135601555565b34801561098557600080fd5b506103856114a7565b34801561099a57600080fd5b506103c36109a936600461195c565b6114b4565b3480156109ba57600080fd5b506103c36109c93660046119ec565b6010805460ff191660ff92909216919091179055565b3480156109eb57600080fd5b506103c36109fa366004611880565b6114e1565b601b8160038110610a0f57600080fd5b018054909150610a1e90611a0f565b80601f0160208091040260200160405190810160405280929190818152602001828054610a4a90611a0f565b8015610a975780601f10610a6c57610100808354040283529160200191610a97565b820191906000526020600020905b815481529060010190602001808311610a7a57829003601f168201915b505050505081565b60168181548110610aaf57600080fd5b600091825260209091200154905081565b610acd60208201826119ec565b6011805460ff191660ff92909216919091179055610af160408201602083016119ec565b6011805460ff929092166101000261ff001990921691909117905550565b60048181548110610b1f57600080fd5b6000918252602090912001546001600160a01b0316905081565b60125415610b81576012805480610b5257610b52611a5f565b60019003818190600052602060002090602091828204019190066101000a81549060ff02191690559055610b39565b60005b81811015610bfe576012838383818110610ba057610ba0611a49565b9050602002016020810190610bb591906119ec565b81546001810183556000928352602092839020928104909201805460ff928316601f9094166101000a938402929093021990921617905580610bf681611a75565b915050610b84565b505050565b600b8181548110610c1357600080fd5b906000526020600020016000915090508054610a1e90611a0f565b600d8160028110610c3e57600080fd5b0154905081565b601e8181548110610c1357600080fd5b610bfe601a8383611599565b610c6e602082018261193a565b6006805460ff1916911515919091179055610c8f604082016020830161193a565b600680549115156101000261ff001990921691909117905550565b60128181548110610cba57600080fd5b600091825260208083209082040154601f9091166101000a9004900b905081565b6000546001600160a01b03163314610d475760405162461bcd60e51b815260206004820152602560248201527f596f7520617265206e6f7420746865206f776e6572206f662074686520636f6e6044820152641d1c9858dd60da1b606482015260840160405180910390fd5b600080546040516001600160a01b03909116914780156108fc02929091818181858888f19350505050158015610d81573d6000803e3d6000fd5b50565b60195415610dcc576019805480610d9d57610d9d611a5f565b60019003818190600052602060002090602091828204019190066101000a81549060ff02191690559055610d84565b60005b81811015610bfe576019838383818110610deb57610deb611a49565b9050602002016020810190610e0091906117de565b81546001810183556000928352602092839020928104909201805460ff928316601f9094166101000a938402929093021990921617905580610e4181611a75565b915050610dcf565b60028160028110610e5957600080fd5b01546001600160a01b0316905081565b60188160038110610e7957600080fd5b60209182820401919006915054906101000a900460ff1681565b60198181548110610ea357600080fd5b9060005260206000209060209182820401919006915054906101000a900460ff1681565b610ed18180611a9c565b610edd91600991611599565b50610eeb6020820182611a9c565b600960015b610efc93910191611599565b5050565b60148160028110610c3e57600080fd5b600f5415610f4457600f805480610f2957610f29611a5f565b60019003818190600052602060002001600090559055610f10565b60005b81811015610bfe57600f838383818110610f6357610f63611a49565b9050602002016020810190610f789190611999565b8154600181018355600092835260209092206001600160801b031990911691015580610fa381611a75565b915050610f47565b60075415610ff3576007805480610fc457610fc4611a5f565b60019003818190600052602060002090602091828204019190066101000a81549060ff02191690559055610fab565b60005b81811015610bfe57600783838381811061101257611012611a49565b9050602002016020810190611027919061193a565b81546001810183556000928352602092839020928104909201805460ff601f9094166101000a9384021916911515929092021790558061106681611a75565b915050610ff6565b61107b60208201826119c3565b600280546001600160a01b0319166001600160a01b03929092169190911790556110ab60408201602083016119c3565b600260010180546001600160a01b0319166001600160a01b039290921691909117905550565b60088054610a1e90611a0f565b600f8181548110610aaf57600080fd5b6016541561112257601680548061110757611107611a5f565b600190038181906000526020600020016000905590556110ee565b60005b81811015610bfe57601683838381811061114157611141611a49565b835460018101855560009485526020948590209190940292909201359190920155508061116d81611a75565b915050611125565b601e54156111b157601e80548061118e5761118e611a5f565b6001900381819060005260206000200160006111aa919061161d565b9055611175565b60005b81811015610bfe57601e8383838181106111d0576111d0611a49565b90506020028101906111e29190611a9c565b82546001810184556000938452602090932061120093019190611599565b508061120b81611a75565b9150506111b4565b6011816002811061122357600080fd5b60209182820401919006915054906101000a900460000b81565b60068160028110610e7957600080fd5b60098160028110610a0f57600080fd5b61126a6020820182611999565b6001600160801b031916600d556112876040820160208301611999565b6001600160801b031916600e5550565b60078181548110610ea357600080fd5b600180546001600160a01b03191690556005805460ff191690556112cd6008600061161d565b6000600c8190556010805460ff1990811690915560138290556017805490911690556112fb90601a9061161d565b60006002819055600355600060065561131660076000611657565b6113226009600061167c565b6000600d819055600e55600060115560006014819055601555600060185561134c601b6000611698565b611358600460006116b5565b61136460076000611657565b611370600b60006116d3565b61137c600f60006116b5565b61138860126000611657565b611394601660006116b5565b6113a060196000611657565b6113ac601e60006116f1565b565b6113bb60208201826117de565b6018805460ff191660ff929092169190911790556113df60408201602083016117de565b6018805460ff929092166101000261ff001990921691909117905550565b610bfe60088383611599565b600b541561144557600b80548061142257611422611a5f565b60019003818190600052602060002001600061143e919061161d565b9055611409565b60005b81811015610bfe57600b83838381811061146457611464611a49565b90506020028101906114769190611a9c565b82546001810184556000938452602090932061149493019190611599565b508061149f81611a75565b915050611448565b601a8054610a1e90611a0f565b6114be8180611a9c565b6114ca91601b91611599565b506114d86020820182611a9c565b601b6001610ef0565b600454156115215760048054806114fa576114fa611a5f565b600082815260209020810160001990810180546001600160a01b03191690550190556114e1565b60005b81811015610bfe57600483838381811061154057611540611a49565b905060200201602081019061155591906119c3565b81546001810183556000928352602090922090910180546001600160a01b0319166001600160a01b039092169190911790558061159181611a75565b915050611524565b8280546115a590611a0f565b90600052602060002090601f0160209004810192826115c7576000855561160d565b82601f106115e05782800160ff1982351617855561160d565b8280016001018555821561160d579182015b8281111561160d5782358255916020019190600101906115f2565b5061161992915061170f565b5090565b50805461162990611a0f565b6000825580601f10611639575050565b601f016020900490600052602060002090810190610d81919061170f565b50805460008255601f016020900490600052602060002090810190610d81919061170f565b506000611689828261161d565b506113ac90600101600061161d565b5060006116a5828261161d565b506001016000611689828261161d565b5080546000825590600052602060002090810190610d81919061170f565b5080546000825590600052602060002090810190610d819190611724565b5080546000825590600052602060002090810190610d819190611741565b5b808211156116195760008155600101611710565b80821115611619576000611738828261161d565b50600101611724565b80821115611619576000611755828261161d565b50600101611741565b60006020828403121561177057600080fd5b5035919050565b6000815180845260005b8181101561179d57602081850181015186830182015201611781565b818111156117af576000602083870101525b50601f01601f19169290920160200192915050565b6020815260006117d76020830184611777565b9392505050565b6000602082840312156117f057600080fd5b813560ff811681146117d757600080fd5b806040810183101561181257600080fd5b92915050565b60006040828403121561182a57600080fd5b6117d78383611801565b60008083601f84011261184657600080fd5b50813567ffffffffffffffff81111561185e57600080fd5b6020830191508360208260051b850101111561187957600080fd5b9250929050565b6000806020838503121561189357600080fd5b823567ffffffffffffffff8111156118aa57600080fd5b6118b685828601611834565b90969095509350505050565b60008083601f8401126118d457600080fd5b50813567ffffffffffffffff8111156118ec57600080fd5b60208301915083602082850101111561187957600080fd5b6000806020838503121561191757600080fd5b823567ffffffffffffffff81111561192e57600080fd5b6118b6858286016118c2565b60006020828403121561194c57600080fd5b813580151581146117d757600080fd5b60006020828403121561196e57600080fd5b813567ffffffffffffffff81111561198557600080fd5b61199184828501611801565b949350505050565b6000602082840312156119ab57600080fd5b81356001600160801b0319811681146117d757600080fd5b6000602082840312156119d557600080fd5b81356001600160a01b03811681146117d757600080fd5b6000602082840312156119fe57600080fd5b81358060000b81146117d757600080fd5b600181811c90821680611a2357607f821691505b602082108103611a4357634e487b7160e01b600052602260045260246000fd5b50919050565b634e487b7160e01b600052603260045260246000fd5b634e487b7160e01b600052603160045260246000fd5b600060018201611a9557634e487b7160e01b600052601160045260246000fd5b5060010190565b6000808335601e19843603018112611ab357600080fd5b83018035915067ffffffffffffffff821115611ace57600080fd5b60200191503681900382131561187957600080fdfea264697066735822122039e2689fb2dd16eddc046c35c7c611ce2c25ffc957a79fcdd691a2f799285b3864736f6c634300080e0033",
    "sourcePath": "c:/Users/jon_h/source/repos/UnitTestingContract/UnitTestingContract.sol",
    "compiler": {
        "name": "solc",
        "version": "0.8.14+commit.80d49f37"
    },
    "functionHashes": {
        "aBool()": "350ca843",
        "aBoolArray(uint256)": "bf1dc291",
        "aBoolArraySz(uint256)": "b86cce3b",
        "addr()": "767800de",
        "addrArray(uint256)": "15c5992d",
        "addrArraySz(uint256)": "6b177677",
        "bigInt()": "4e56e108",
        "bigIntArray(uint256)": "0e9e99d1",
        "bigIntArraySz(uint256)": "7907411c",
        "getBalance()": "12065fe0",
        "owner()": "8da5cb5b",
        "revertAllStorage()": "c2bf2687",
        "setABool(bool)": "69a3c06a",
        "setABoolArray(bool[])": "87d8577f",
        "setABoolArraySz(bool[2])": "5ecb4cc4",
        "setAddr(address)": "d1d80fdf",
        "setAddrArray(address[])": "f9a920a6",
        "setAddrArraySz(address[2])": "961c659f",
        "setBigInt(int256)": "9206fe68",
        "setBigIntArray(int256[])": "a5495ef5",
        "setBigIntArraySz(int256[2])": "dfd5c3a9",
        "setSizedBytes(bytes16)": "cb501cb4",
        "setSizedBytesArray(bytes16[])": "80ec3373",
        "setSizedBytesArraySz(bytes16[2])": "bed25df6",
        "setSomeBytes(bytes)": "d21917db",
        "setSomeBytesArray(bytes[])": "df22e7f9",
        "setSomeBytesArraySz(bytes[2])": "76ad4bb1",
        "setSomeString(string)": "599e4603",
        "setSomeStringArray(string[])": "a8346415",
        "setSomeStringArraySz(string[2])": "e87ccd7b",
        "setTinyInt(int8)": "eabed090",
        "setTinyIntArray(int8[])": "1a4ab467",
        "setTinyIntArraySz(int8[2])": "0f088666",
        "setTinyUint(uint8)": "0c8885e4",
        "setTinyUintArray(uint8[])": "602d5089",
        "setTinyUintArraySz(uint8[2])": "cbfe8119",
        "sizedBytes()": "03d24233",
        "sizedBytesArray(uint256)": "a49b9519",
        "sizedBytesArraySz(uint256)": "44dd656d",
        "someBytes()": "9c38f900",
        "someBytesArray(uint256)": "39dd47a6",
        "someBytesArraySz(uint256)": "bd621a2b",
        "someString()": "e7a96f6d",
        "someStringArray(uint256)": "450632f1",
        "someStringArraySz(uint256)": "0c2eb905",
        "tinyInt()": "0aa514ae",
        "tinyIntArray(uint256)": "5fb4cbd2",
        "tinyIntArraySz(uint256)": "a88cb73b",
        "tinyUint()": "99872179",
        "tinyUintArray(uint256)": "74ca46e5",
        "tinyUintArraySz(uint256)": "717e2f5d",
        "withdrawBalance()": "5fd8c710"
    },
    "gasEstimates": {
        "creation": {
            "codeDepositCost": "1387400",
            "executionCost": "infinite",
            "totalCost": "infinite"
        },
        "external": {
            "aBool()": "2378",
            "aBoolArray(uint256)": "6303",
            "aBoolArraySz(uint256)": "4193",
            "addr()": "2426",
            "addrArray(uint256)": "4705",
            "addrArraySz(uint256)": "2547",
            "bigInt()": "2330",
            "bigIntArray(uint256)": "4699",
            "bigIntArraySz(uint256)": "2540",
            "getBalance()": "252",
            "owner()": "2427",
            "revertAllStorage()": "infinite",
            "setABool(bool)": "24550",
            "setABoolArray(bool[])": "infinite",
            "setABoolArraySz(bool[2])": "infinite",
            "setAddr(address)": "24679",
            "setAddrArray(address[])": "infinite",
            "setAddrArraySz(address[2])": "infinite",
            "setBigInt(int256)": "22424",
            "setBigIntArray(int256[])": "infinite",
            "setBigIntArraySz(int256[2])": "44615",
            "setSizedBytes(bytes16)": "22493",
            "setSizedBytesArray(bytes16[])": "infinite",
            "setSizedBytesArraySz(bytes16[2])": "infinite",
            "setSomeBytes(bytes)": "infinite",
            "setSomeBytesArray(bytes[])": "infinite",
            "setSomeBytesArraySz(bytes[2])": "infinite",
            "setSomeString(string)": "infinite",
            "setSomeStringArray(string[])": "infinite",
            "setSomeStringArraySz(string[2])": "infinite",
            "setTinyInt(int8)": "24600",
            "setTinyIntArray(int8[])": "infinite",
            "setTinyIntArraySz(int8[2])": "infinite",
            "setTinyUint(uint8)": "24601",
            "setTinyUintArray(uint8[])": "infinite",
            "setTinyUintArraySz(uint8[2])": "infinite",
            "sizedBytes()": "2331",
            "sizedBytesArray(uint256)": "4654",
            "sizedBytesArraySz(uint256)": "2519",
            "someBytes()": "infinite",
            "someBytesArray(uint256)": "infinite",
            "someBytesArraySz(uint256)": "infinite",
            "someString()": "infinite",
            "someStringArray(uint256)": "infinite",
            "someStringArraySz(uint256)": "infinite",
            "tinyInt()": "2389",
            "tinyIntArray(uint256)": "6353",
            "tinyIntArraySz(uint256)": "4181",
            "tinyUint()": "2469",
            "tinyUintArray(uint256)": "6306",
            "tinyUintArraySz(uint256)": "4197",
            "withdrawBalance()": "infinite"
        }
    }
}